{
  "_format": "hh-sol-artifact-1",
  "contractName": "Scores",
  "sourceName": "contracts/Scores.sol",
  "abi": [
    {
      "inputs": [],
      "stateMutability": "nonpayable",
      "type": "constructor"
    },
    {
      "inputs": [],
      "name": "Count",
      "outputs": [
        {
          "internalType": "uint256",
          "name": "",
          "type": "uint256"
        }
      ],
      "stateMutability": "view",
      "type": "function"
    },
    {
      "inputs": [
        {
          "internalType": "string",
          "name": "_MA_SV",
          "type": "string"
        },
        {
          "internalType": "uint256",
          "name": "_MA_NHP",
          "type": "uint256"
        },
        {
          "internalType": "string",
          "name": "_DIEM_SO",
          "type": "string"
        },
        {
          "internalType": "string",
          "name": "_DIEM_CHU",
          "type": "string"
        },
        {
          "internalType": "string",
          "name": "_LY_DO",
          "type": "string"
        }
      ],
      "name": "editScoreGV",
      "outputs": [],
      "stateMutability": "nonpayable",
      "type": "function"
    },
    {
      "inputs": [
        {
          "internalType": "string",
          "name": "_MA_SV",
          "type": "string"
        }
      ],
      "name": "getAllScoreSV",
      "outputs": [
        {
          "components": [
            {
              "internalType": "uint256",
              "name": "STT",
              "type": "uint256"
            },
            {
              "internalType": "uint256",
              "name": "MA_NHP",
              "type": "uint256"
            },
            {
              "internalType": "string",
              "name": "MA_SV",
              "type": "string"
            },
            {
              "internalType": "string",
              "name": "HOTEN_SV",
              "type": "string"
            },
            {
              "internalType": "string",
              "name": "MA_MH",
              "type": "string"
            },
            {
              "internalType": "string",
              "name": "MON_HOC",
              "type": "string"
            },
            {
              "internalType": "uint256",
              "name": "TIN_CHI",
              "type": "uint256"
            },
            {
              "internalType": "string",
              "name": "DIEM_SO",
              "type": "string"
            },
            {
              "internalType": "string",
              "name": "DIEM_CHU",
              "type": "string"
            },
            {
              "internalType": "string",
              "name": "LY_DO",
              "type": "string"
            }
          ],
          "internalType": "struct Scores.userScore[]",
          "name": "",
          "type": "tuple[]"
        }
      ],
      "stateMutability": "view",
      "type": "function"
    },
    {
      "inputs": [
        {
          "internalType": "uint256",
          "name": "_MA_NHP",
          "type": "uint256"
        }
      ],
      "name": "getScoreGV",
      "outputs": [
        {
          "components": [
            {
              "internalType": "uint256",
              "name": "STT",
              "type": "uint256"
            },
            {
              "internalType": "uint256",
              "name": "MA_NHP",
              "type": "uint256"
            },
            {
              "internalType": "string",
              "name": "MA_SV",
              "type": "string"
            },
            {
              "internalType": "string",
              "name": "HOTEN_SV",
              "type": "string"
            },
            {
              "internalType": "string",
              "name": "MA_MH",
              "type": "string"
            },
            {
              "internalType": "string",
              "name": "MON_HOC",
              "type": "string"
            },
            {
              "internalType": "uint256",
              "name": "TIN_CHI",
              "type": "uint256"
            },
            {
              "internalType": "string",
              "name": "DIEM_SO",
              "type": "string"
            },
            {
              "internalType": "string",
              "name": "DIEM_CHU",
              "type": "string"
            },
            {
              "internalType": "string",
              "name": "LY_DO",
              "type": "string"
            }
          ],
          "internalType": "struct Scores.userScore[]",
          "name": "",
          "type": "tuple[]"
        }
      ],
      "stateMutability": "view",
      "type": "function"
    },
    {
      "inputs": [
        {
          "internalType": "uint256",
          "name": "_MA_NHP",
          "type": "uint256"
        },
        {
          "internalType": "string",
          "name": "_MA_SV",
          "type": "string"
        },
        {
          "internalType": "string",
          "name": "_HOTEN_SV",
          "type": "string"
        },
        {
          "internalType": "string",
          "name": "_MA_MH",
          "type": "string"
        },
        {
          "internalType": "string",
          "name": "_MON_HOC",
          "type": "string"
        },
        {
          "internalType": "uint256",
          "name": "_TIN_CHI",
          "type": "uint256"
        },
        {
          "internalType": "string",
          "name": "_DIEM_SO",
          "type": "string"
        },
        {
          "internalType": "string",
          "name": "_DIEM_CHU",
          "type": "string"
        },
        {
          "internalType": "string",
          "name": "_LY_DO",
          "type": "string"
        }
      ],
      "name": "setScoreGV",
      "outputs": [],
      "stateMutability": "nonpayable",
      "type": "function"
    }
  ],
  "bytecode": "0x608060405273d61298cbc34df66b07d42b3fc3b602da7982c297600260006101000a81548173ffffffffffffffffffffffffffffffffffffffff021916908373ffffffffffffffffffffffffffffffffffffffff16021790555034801561006557600080fd5b506000600181905550611b718061007d6000396000f3fe608060405234801561001057600080fd5b50600436106100575760003560e01c806303fad9701461005c5780637f56c3001461008c57806393a8333e146100a85780639d359ae8146100c6578063dbdcadd0146100f6575b600080fd5b61007660048036038101906100719190610f78565b610112565b604051610083919061120a565b60405180910390f35b6100a660048036038101906100a19190611361565b610613565b005b6100b06107bd565b6040516100bd919061145b565b60405180910390f35b6100e060048036038101906100db9190611476565b6107c3565b6040516100ed919061120a565b60405180910390f35b610110600480360381019061010b91906114bf565b610d0f565b005b6060600060015467ffffffffffffffff81111561013257610131611236565b5b60405190808252806020026020018201604052801561016b57816020015b610158610edb565b8152602001906001900390816101505790505b50905060005b600154811015610609578360008083815260200190815260200160002060010154036105f65760008060008381526020019081526020016000209050806040518061014001604052908160008201548152602001600182015481526020016002820180546101de9061167c565b80601f016020809104026020016040519081016040528092919081815260200182805461020a9061167c565b80156102575780601f1061022c57610100808354040283529160200191610257565b820191906000526020600020905b81548152906001019060200180831161023a57829003601f168201915b505050505081526020016003820180546102709061167c565b80601f016020809104026020016040519081016040528092919081815260200182805461029c9061167c565b80156102e95780601f106102be576101008083540402835291602001916102e9565b820191906000526020600020905b8154815290600101906020018083116102cc57829003601f168201915b505050505081526020016004820180546103029061167c565b80601f016020809104026020016040519081016040528092919081815260200182805461032e9061167c565b801561037b5780601f106103505761010080835404028352916020019161037b565b820191906000526020600020905b81548152906001019060200180831161035e57829003601f168201915b505050505081526020016005820180546103949061167c565b80601f01602080910402602001604051908101604052809291908181526020018280546103c09061167c565b801561040d5780601f106103e25761010080835404028352916020019161040d565b820191906000526020600020905b8154815290600101906020018083116103f057829003601f168201915b50505050508152602001600682015481526020016007820180546104309061167c565b80601f016020809104026020016040519081016040528092919081815260200182805461045c9061167c565b80156104a95780601f1061047e576101008083540402835291602001916104a9565b820191906000526020600020905b81548152906001019060200180831161048c57829003601f168201915b505050505081526020016008820180546104c29061167c565b80601f01602080910402602001604051908101604052809291908181526020018280546104ee9061167c565b801561053b5780601f106105105761010080835404028352916020019161053b565b820191906000526020600020905b81548152906001019060200180831161051e57829003601f168201915b505050505081526020016009820180546105549061167c565b80601f01602080910402602001604051908101604052809291908181526020018280546105809061167c565b80156105cd5780601f106105a2576101008083540402835291602001916105cd565b820191906000526020600020905b8154815290600101906020018083116105b057829003601f168201915b5050505050815250508383815181106105e9576105e86116ad565b5b6020026020010181905250505b80806106019061170b565b915050610171565b5080915050919050565b600260009054906101000a900473ffffffffffffffffffffffffffffffffffffffff1673ffffffffffffffffffffffffffffffffffffffff163373ffffffffffffffffffffffffffffffffffffffff16146106a3576040517f08c379a000000000000000000000000000000000000000000000000000000000815260040161069a906117b0565b60405180910390fd5b60005b6001548110156107b557856040516020016106c1919061180c565b604051602081830303815290604052805190602001206000808381526020019081526020016000206002016040516020016106fc91906118bb565b6040516020818303038152906040528051906020012014801561073357508460008083815260200190815260200160002060010154145b156107a25783600080838152602001908152602001600020600701908161075a9190611a69565b5082600080838152602001908152602001600020600801908161077d9190611a69565b508160008083815260200190815260200160002060090190816107a09190611a69565b505b80806107ad9061170b565b9150506106a6565b505050505050565b60015481565b6060600060015467ffffffffffffffff8111156107e3576107e2611236565b5b60405190808252806020026020018201604052801561081c57816020015b610809610edb565b8152602001906001900390816108015790505b50905060005b600154811015610d05578360405160200161083d919061180c565b6040516020818303038152906040528051906020012060008083815260200190815260200160002060020160405160200161087891906118bb565b6040516020818303038152906040528051906020012003610cf25760008060008381526020019081526020016000209050806040518061014001604052908160008201548152602001600182015481526020016002820180546108da9061167c565b80601f01602080910402602001604051908101604052809291908181526020018280546109069061167c565b80156109535780601f1061092857610100808354040283529160200191610953565b820191906000526020600020905b81548152906001019060200180831161093657829003601f168201915b5050505050815260200160038201805461096c9061167c565b80601f01602080910402602001604051908101604052809291908181526020018280546109989061167c565b80156109e55780601f106109ba576101008083540402835291602001916109e5565b820191906000526020600020905b8154815290600101906020018083116109c857829003601f168201915b505050505081526020016004820180546109fe9061167c565b80601f0160208091040260200160405190810160405280929190818152602001828054610a2a9061167c565b8015610a775780601f10610a4c57610100808354040283529160200191610a77565b820191906000526020600020905b815481529060010190602001808311610a5a57829003601f168201915b50505050508152602001600582018054610a909061167c565b80601f0160208091040260200160405190810160405280929190818152602001828054610abc9061167c565b8015610b095780601f10610ade57610100808354040283529160200191610b09565b820191906000526020600020905b815481529060010190602001808311610aec57829003601f168201915b5050505050815260200160068201548152602001600782018054610b2c9061167c565b80601f0160208091040260200160405190810160405280929190818152602001828054610b589061167c565b8015610ba55780601f10610b7a57610100808354040283529160200191610ba5565b820191906000526020600020905b815481529060010190602001808311610b8857829003601f168201915b50505050508152602001600882018054610bbe9061167c565b80601f0160208091040260200160405190810160405280929190818152602001828054610bea9061167c565b8015610c375780601f10610c0c57610100808354040283529160200191610c37565b820191906000526020600020905b815481529060010190602001808311610c1a57829003601f168201915b50505050508152602001600982018054610c509061167c565b80601f0160208091040260200160405190810160405280929190818152602001828054610c7c9061167c565b8015610cc95780601f10610c9e57610100808354040283529160200191610cc9565b820191906000526020600020905b815481529060010190602001808311610cac57829003601f168201915b505050505081525050838381518110610ce557610ce46116ad565b5b6020026020010181905250505b8080610cfd9061170b565b915050610822565b5080915050919050565b600260009054906101000a900473ffffffffffffffffffffffffffffffffffffffff1673ffffffffffffffffffffffffffffffffffffffff163373ffffffffffffffffffffffffffffffffffffffff1614610d9f576040517f08c379a0000000000000000000000000000000000000000000000000000000008152600401610d96906117b0565b60405180910390fd5b60405180610140016040528060015481526020018a815260200189815260200188815260200187815260200186815260200185815260200184815260200183815260200182815250600080600154815260200190815260200160002060008201518160000155602082015181600101556040820151816002019081610e249190611a69565b506060820151816003019081610e3a9190611a69565b506080820151816004019081610e509190611a69565b5060a0820151816005019081610e669190611a69565b5060c0820151816006015560e0820151816007019081610e869190611a69565b50610100820151816008019081610e9d9190611a69565b50610120820151816009019081610eb49190611a69565b5090505060016000815480929190610ecb9061170b565b9190505550505050505050505050565b604051806101400160405280600081526020016000815260200160608152602001606081526020016060815260200160608152602001600081526020016060815260200160608152602001606081525090565b6000604051905090565b600080fd5b600080fd5b6000819050919050565b610f5581610f42565b8114610f6057600080fd5b50565b600081359050610f7281610f4c565b92915050565b600060208284031215610f8e57610f8d610f38565b5b6000610f9c84828501610f63565b91505092915050565b600081519050919050565b600082825260208201905092915050565b6000819050602082019050919050565b610fda81610f42565b82525050565b600081519050919050565b600082825260208201905092915050565b60005b8381101561101a578082015181840152602081019050610fff565b60008484015250505050565b6000601f19601f8301169050919050565b600061104282610fe0565b61104c8185610feb565b935061105c818560208601610ffc565b61106581611026565b840191505092915050565b6000610140830160008301516110896000860182610fd1565b50602083015161109c6020860182610fd1565b50604083015184820360408601526110b48282611037565b915050606083015184820360608601526110ce8282611037565b915050608083015184820360808601526110e88282611037565b91505060a083015184820360a08601526111028282611037565b91505060c083015161111760c0860182610fd1565b5060e083015184820360e086015261112f8282611037565b91505061010083015184820361010086015261114b8282611037565b9150506101208301518482036101208601526111678282611037565b9150508091505092915050565b60006111808383611070565b905092915050565b6000602082019050919050565b60006111a082610fa5565b6111aa8185610fb0565b9350836020820285016111bc85610fc1565b8060005b858110156111f857848403895281516111d98582611174565b94506111e483611188565b925060208a019950506001810190506111c0565b50829750879550505050505092915050565b600060208201905081810360008301526112248184611195565b905092915050565b600080fd5b600080fd5b7f4e487b7100000000000000000000000000000000000000000000000000000000600052604160045260246000fd5b61126e82611026565b810181811067ffffffffffffffff8211171561128d5761128c611236565b5b80604052505050565b60006112a0610f2e565b90506112ac8282611265565b919050565b600067ffffffffffffffff8211156112cc576112cb611236565b5b6112d582611026565b9050602081019050919050565b82818337600083830152505050565b60006113046112ff846112b1565b611296565b9050828152602081018484840111156113205761131f611231565b5b61132b8482856112e2565b509392505050565b600082601f8301126113485761134761122c565b5b81356113588482602086016112f1565b91505092915050565b600080600080600060a0868803121561137d5761137c610f38565b5b600086013567ffffffffffffffff81111561139b5761139a610f3d565b5b6113a788828901611333565b95505060206113b888828901610f63565b945050604086013567ffffffffffffffff8111156113d9576113d8610f3d565b5b6113e588828901611333565b935050606086013567ffffffffffffffff81111561140657611405610f3d565b5b61141288828901611333565b925050608086013567ffffffffffffffff81111561143357611432610f3d565b5b61143f88828901611333565b9150509295509295909350565b61145581610f42565b82525050565b6000602082019050611470600083018461144c565b92915050565b60006020828403121561148c5761148b610f38565b5b600082013567ffffffffffffffff8111156114aa576114a9610f3d565b5b6114b684828501611333565b91505092915050565b60008060008060008060008060006101208a8c0312156114e2576114e1610f38565b5b60006114f08c828d01610f63565b99505060208a013567ffffffffffffffff81111561151157611510610f3d565b5b61151d8c828d01611333565b98505060408a013567ffffffffffffffff81111561153e5761153d610f3d565b5b61154a8c828d01611333565b97505060608a013567ffffffffffffffff81111561156b5761156a610f3d565b5b6115778c828d01611333565b96505060808a013567ffffffffffffffff81111561159857611597610f3d565b5b6115a48c828d01611333565b95505060a06115b58c828d01610f63565b94505060c08a013567ffffffffffffffff8111156115d6576115d5610f3d565b5b6115e28c828d01611333565b93505060e08a013567ffffffffffffffff81111561160357611602610f3d565b5b61160f8c828d01611333565b9250506101008a013567ffffffffffffffff81111561163157611630610f3d565b5b61163d8c828d01611333565b9150509295985092959850929598565b7f4e487b7100000000000000000000000000000000000000000000000000000000600052602260045260246000fd5b6000600282049050600182168061169457607f821691505b6020821081036116a7576116a661164d565b5b50919050565b7f4e487b7100000000000000000000000000000000000000000000000000000000600052603260045260246000fd5b7f4e487b7100000000000000000000000000000000000000000000000000000000600052601160045260246000fd5b600061171682610f42565b91507fffffffffffffffffffffffffffffffffffffffffffffffffffffffffffffffff8203611748576117476116dc565b5b600182019050919050565b600082825260208201905092915050565b7f6f6e6c792061646d696e2063616c6c2066756e6374696f6e0000000000000000600082015250565b600061179a601883611753565b91506117a582611764565b602082019050919050565b600060208201905081810360008301526117c98161178d565b9050919050565b600081905092915050565b60006117e682610fe0565b6117f081856117d0565b9350611800818560208601610ffc565b80840191505092915050565b600061181882846117db565b915081905092915050565b60008190508160005260206000209050919050565b600081546118458161167c565b61184f81866117d0565b9450600182166000811461186a576001811461187f576118b2565b60ff19831686528115158202860193506118b2565b61188885611823565b60005b838110156118aa5781548189015260018201915060208101905061188b565b838801955050505b50505092915050565b60006118c78284611838565b915081905092915050565b60006020601f8301049050919050565b600082821b905092915050565b60006008830261191f7fffffffffffffffffffffffffffffffffffffffffffffffffffffffffffffffff826118e2565b61192986836118e2565b95508019841693508086168417925050509392505050565b6000819050919050565b600061196661196161195c84610f42565b611941565b610f42565b9050919050565b6000819050919050565b6119808361194b565b61199461198c8261196d565b8484546118ef565b825550505050565b600090565b6119a961199c565b6119b4818484611977565b505050565b5b818110156119d8576119cd6000826119a1565b6001810190506119ba565b5050565b601f821115611a1d576119ee81611823565b6119f7846118d2565b81016020851015611a06578190505b611a1a611a12856118d2565b8301826119b9565b50505b505050565b600082821c905092915050565b6000611a4060001984600802611a22565b1980831691505092915050565b6000611a598383611a2f565b9150826002028217905092915050565b611a7282610fe0565b67ffffffffffffffff811115611a8b57611a8a611236565b5b611a95825461167c565b611aa08282856119dc565b600060209050601f831160018114611ad35760008415611ac1578287015190505b611acb8582611a4d565b865550611b33565b601f198416611ae186611823565b60005b82811015611b0957848901518255600182019150602085019450602081019050611ae4565b86831015611b265784890151611b22601f891682611a2f565b8355505b6001600288020188555050505b50505050505056fea26469706673582212205f7a5c3dab2562c8c71798c1284668f492c058b6a71d09bc9dbef7e3e6d535e464736f6c63430008110033",
  "linkReferences": {},
  "deployedLinkReferences": {}
}